:020000040800F2
:10000000200500209D010008D71300086F1100088B
:10001000D5130008A90200086B17000800000000B3
:10002000000000000000000000000000DB130008DA
:10003000AB02000800000000D9130008DD1300081F
:10004000B7010008B7010008B7010008B7010008B0
:10005000B7010008B7010008B7010008B7010008A0
:10006000B7010008B7010008B7010008B701000890
:10007000B7010008B7010008B7010008B701000880
:10008000B7010008B7010008B7010008B701000870
:10009000B7010008B7010008B7010008B701000860
:1000A000B7010008B7010008B7010008B701000850
:1000B00081140008B7010008B7010008B701000863
:1000C000B7010008B7010008B7010008B701000830
:1000D000B7010008B7010008B7010008B701000820
:1000E000B7010008B7010008B7010008B701000810
:1000F000B7010008B7010008B7010008B701000800
:10010000B7010008B70100088D140008B701000806
:10011000B7010008B7010008B7010008B7010008DF
:10012000B7010008B7010008B7010008B7010008CF
:10013000B7010008B7010008B7010008B7010008BF
:10014000B7010008B7010008B7010008B7010008AF
:10015000B7010008B7010008B7010008B70100089F
:10016000B7010008B7010008B7010008B70100088F
:10017000B7010008B7010008B7010008000000003F
:10018000B7010008B7010008DFF80CD000F07AF8DA
:1001900000480047651900082005002006488047F0
:1001A00006480047FEE7FEE7FEE7FEE7FEE7FEE75C
:1001B000FEE7FEE7FEE7FEE7651400088901000898
:1001C0002DE9F05F0546002092469B46884606468C
:1001D000814640241BE0284641464746224600F01F
:1001E00041F853465A46C01A914110D31146184659
:1001F000224600F028F82D1A67EB01084F462246E8
:100200000120002100F01FF817EB00094E41201ECD
:10021000A4F10104DFDC484631462A464346BDE8E6
:10022000F09FD2B201E000F8012B491EFBD27047CB
:100230000022F6E710B513460A4604461946FFF7B2
:10024000F0FF204610BD202A04DB203A00FA02F11C
:10025000002070479140C2F1200320FA03F31943B4
:1002600090407047202A04DB203A21FA02F0002156
:10027000704721FA02F3D040C2F1200291400843B6
:1002800019467047064C074D06E0E06840F0010350
:1002900094E8070098471034AC42F6D3FFF778FF94
:1002A000AC1E0008CC1E0008FEE77047704770B512
:1002B0004379012B1AD00126467102230371056888
:1002C0002C6840F6FE7393409C43D1E900310B4308
:1002D000934023432B6001680B68C0249440A343E0
:1002E0000B60067100214171084670BD022070BD8F
:1002F00070B5040003D02079002510B105E001207D
:1003000070BD6571204600F007F80220207125615C
:1003100001202071002070BD10B586B00446142164
:100320006846FFF785FF1149206888421CD11048B4
:100330000021026842F000520260006800F00050A4
:1003400005900B481038026842F001020260006814
:1003500000F001000590102000900320CDE901017C
:100360006946044800F068F806B010BD007400400B
:10037000403802400000024018B50468009400684C
:10038000104421B1143000900360002018BD0830E3
:10039000F9E730B54279012A16D0012242710223D1
:1003A000037103681D6802FA01F425431D600029EA
:1003B00001680B680AD00C6803F4802304F460140D
:1003C000B3F5802F0FD015E0022030BD0C6803F08C
:1003D000040304F03804042B0CD1382C0AD14B68E8
:1003E00043F0010305E0B4F5601F03D14B6843F00F
:1003F00002034B60027100214171084630BD10B507
:1004000002681468012303FA01F18C43146003713C
:10041000002010BD70B5044600F0F0F80546601CE1
:1004200002D004480078044400F0E8F8401BA042E1
:10043000FAD370BD7C0000202DE9F84F00224FF068
:10044000010803254FF00F0E0B6808FA02F4234051
:10045000A3426ED14E68012E05D0022E03D0112E7C
:1004600001D0122E12D186684FEA420C05FA0CF721
:10047000BE43CF6807FA0CF7374387604668A64348
:100480000C79C4F30014944034434460C6685700A8
:1004900005FA07FC8C6826EA0C06BC403443C460AD
:1004A0004C68022C01D0122C13D1D40800EB840428
:1004B000A346D4F8209054074FEAD46A0EFA0AF6FD
:1004C00029EA06090E6906FA0AF646EA0906CBF891
:1004D000206006680C7926EA0C0604F00304BC4090
:1004E000344304604C68E40065D5364C266846F415
:1004F00080462660246822F0030604F480440094B9
:10050000314C3444A446D4F808489607370F0EFA05
:1005100007F6B4432D4EB04201D1002624E02C4E04
:10052000B04201D101261FE02A4EB04202D102267C
:100530001AE040E0284EB04201D1032614E0274ED5
:10054000B04201D104260FE0254EB04201D105266C
:100550000AE0244EB04201D1062605E0224EB04208
:1005600001D1072600E00826BE402643CCF80868E3
:100570001E4E34684F689C43FF0300D51C43346013
:100580001A4C241D26684F689E43BF0300D51E43A6
:100590002660164E083634684F689C43FF0200D52B
:1005A0001C433460114E0C3634684F689C43BF02C4
:1005B00000D51C433460521C102AFFF445AFBDE83F
:1005C000F88F000044380240003001400000024033
:1005D0000004024000080240000C024000100240EB
:1005E0000014024000180240001C0240003C014080
:1005F0000AB1816170470904FBE700000148806887
:10060000704700007C000020024881680278114495
:10061000816070477C0000200B4810B5016841F4F0
:1006200000710160016841F480610160016841F47A
:1006300080710160032000F06FF8002000F006F8E0
:1006400000F024F8002010BD003C024070B50D4DB4
:1006500004464FF47A712878B1FBF0F00A49096832
:10066000B1FBF0F000F0E4FA48B9102C07D20022F8
:100670002146501E00F030F800206C6070BD012053
:1006800070BD00007C000020880000200A4808B5EA
:10069000016841F480410160006800F480400090EE
:1006A0000548001F016841F080510160006800F0BA
:1006B0008050009008BD000044380240002809DB4B
:1006C00000F01F02012191404009800000F1E0206C
:1006D000C0F8001170470000F0B40E4B1B680C46C8
:1006E000C3F30223C3F10705042D00D90425191D06
:1006F000072901D2002300E0DB1E012606FA05F1DE
:10070000491E214099409E40761E16403143F0BC60
:1007100001F02CB80CED00E0064900F00702086873
:100720004FF6FF03184040EA0220034A10430860D6
:10073000704700000CED00E00000FA052DE9F047DD
:100740000E46050065D0DFF81481D8F80000F7B236
:1007500000F00F00B04207D288F80070D8F800000F
:1007600000F00F00B04254D128683D4C810712D5EB
:10077000400703D5206840F4E05020602878000747
:1007800003D5206840F4604020602068A96820F00C
:10079000F000084320602878C0072DD030496868F1
:1007A0000839012812D0022813D0032811D0096873
:1007B000890700292DDA216821F003010143216016
:1007C000FFF71CFF814641F2883A0EE00968890371
:1007D000EFE709688901ECE7FFF710FFA0EB0901DB
:1007E000514502D90320BDE8F0872068696800F010
:1007F0000C00B0EB810FEFD1D8F80010404601F0AB
:100800000F01B14207D90770006800F00F00B04235
:1008100001D00120E7E72878400705D52068E9687E
:1008200020F4E050084320602878000706D52068AF
:10083000296920F4604040EAC100206000F018F807
:100840002168084AC1F30311515CC8400649086099
:1008500006480068FFF7FAFE0020C4E7003C0240AB
:10086000083802409C1E00088800002080000020FC
:10087000154810B5006810F00C02144813D0144944
:10088000042A0FD0082A0ED10F4C241F2268236897
:1008900002F03F025B0207D52068C0F38810A0FB7E
:1008A000010106E0084610BD2168C1F38811A1FBD3
:1008B00000010023FFF784FC2168C1F30141491CBA
:1008C0004900B0FBF1F010BD083802400024F400EC
:1008D00040787D012DE9F84F04006ED02078DFF8D4
:1008E0003C93C007A9F104054AD009F1040001684E
:1008F000C1F38101012908D00068C0F381000228FA
:100900000AD1D9F80000400206D52868800337D5FF
:1009100060680028E1D033E06068B0F5803F10D017
:10092000B0F5A02F286810D020F480302860286807
:1009300020F4802028606068A8B1FFF75FFE0646BB
:100940000DE0286840F48030F4E740F4802028600F
:10095000F7E700BFFFF752FE801B642873D82868B2
:100960008003F7D50CE0FFF749FE064605E000BF1F
:10097000FFF744FE801B6428F0D828688003F7D472
:100980002078DFF89C8280074FF0000A3ED5A3480C
:10099000001D016811F00C0F08D00068C0F3810041
:1009A00002280BD1D9F80000400207D4286880073C
:1009B00016D5E068012800D112E02BE1E068B8B15B
:1009C0000120C8F80000FFF719FE064605E000BF49
:1009D000FFF714FE801B0228C0D828688007F7D5CF
:1009E0002868216920F0F80040EAC10028600DE085
:1009F000C8F800A0FFF702FE064604E0FFF7FEFD80
:100A0000801B02281FD828688007F7D420780007A9
:100A100022D5824E83486169703671B1012101602F
:100A2000FFF7ECFD074604E0FFF7E8FDC01B0228D6
:100A300009D830688007F7D50EE0C0F800A0FFF7AE
:100A4000DDFD074605E082E0FFF7D8FDC01B022868
:100A50007DD830688007F7D42078400768D5DFF864
:100A6000BCB100270BF13C0BDBF80000C0000BD43D
:100A7000DBF8001041F08051CBF80010DBF80000EB
:100A8000012700F080500090674E3068C00510D4F8
:100A9000306840F480703060FFF7B0FD009005E0F2
:100AA000FFF7ACFD0099401A022850D83068C00505
:100AB000F6D55A4EA0686C3601280FD0052830684C
:100AC00010D020F001003060306820F00400306069
:100AD000A068B8B1FFF792FD00900FE0306840F0D9
:100AE0000100F4E740F004003060F7E7FFF786FD0F
:100AF0000099411A41F28830814266D830688007F7
:100B0000F4D50EE0FFF77AFD009007E0FFF776FDE1
:100B10000099411A41F28830814256D830688007E6
:100B2000F4D42FB1DBF8001021F08051CBF8001085
:100B3000A069C8B33949091D0968C1F381010229B7
:100B40004AD00228504607D0C8F8600000E03CE0D8
:100B5000FFF754FD04463BE04746C8F86000FFF746
:100B60004DFD064605E000BFFFF748FD801B02284B
:100B70002BD828688001F7D4D4E907010843A16A7B
:100B80002A4A490802EB0141626A41EA821108439C
:100B900094F82C1040EA0161C9F800100120386671
:100BA000FFF72CFD044606E036E000BFFFF726FD08
:100BB000001B022809D828688001F7D52CE000BF67
:100BC000FFF71CFD001B022802D90320BDE8F88FA7
:100BD00028688001F4D41FE00128F7D0D9F800007C
:100BE000E26900F48001914214D1226A00F03F01D1
:100BF00091420FD147F6C071626A0140914209D11A
:100C0000A26A00F44031914204D1E16A00F07060C0
:100C1000884201D00120D9E70020D7E704380240FC
:100C200000004742800E4742007000400000FFFF76
:100C300010B5401EB0F1807F01D3012010BD4FF0F0
:100C4000E02460610F21601700F090FD0020A0619A
:100C500007202061002010BD7047704770B590F8E4
:100C60003C20012A32D0012480F83C40022280F846
:100C70003D2003685A689D6822F070060A68324376
:100C80005A60134B02689A4214D0B2F1804F11D0CF
:100C9000104B9A420ED0104B9A420BD00F4B9A42F7
:100CA00008D00F4B9A4205D00E4B9A4202D00E4B01
:100CB0009A4204D1496825F080031943916080F875
:100CC0003D40002180F83C10084670BD022070BDF8
:100CD000000001400004004000080040000C0040FB
:100CE00000040140004001400018004010B504001D
:100CF00003D094F83D0010B107E0012010BD0020A2
:100D000084F83C00204600F00DF8022084F83D00F5
:100D1000211D206800F0C0FB012084F83D00002068
:100D200010BD000008B501681448B1F1804F14D01F
:100D3000134A914220D1016841F008010160006826
:100D4000002200F00800009011463220FFF7C4FC9A
:100D50003220BDE80840FFF7B1BC016841F0010155
:100D600001600068002200F00100009011461C2084
:100D7000FFF7B2FC1C20ECE708BD00004038024041
:100D8000000C004070B5044690F83C00012817D0D4
:100D9000012584F83C50022084F83D0020688268D8
:100DA00022F0770222F47F4282600868502830D017
:100DB0000DDC20284DD005DC98B310283BD148E04D
:100DC000022070BD302844D0402834D139E060285A
:100DD00028D0702806D0B0F5805F2CD0B0F5005F29
:100DE00029D10AE0CB68D1E90121206800F0C5FBD8
:100DF0002068816841F0770109E0CB68D1E90121E1
:100E0000206800F0BAFB2068816841F4804181606D
:100E100011E0CA684968206800F084FC502120680D
:100E200007E016E0CA684968206800F08CFC602181
:100E3000206800F0ACFB84F83D50002084F83C00B2
:100E400070BDCA684968206800F06CFC40212068C9
:100E5000EFE7226801461046EBE7704770B504469D
:100E6000006801694FF00005C943890715D4C168BE
:100E7000C943890711D4E91E016101202077206848
:100E800080698007204602D0FFF7E7FF04E000F00A
:100E9000C3F8204600F068F9257720680169C94346
:100EA000490717D4C168C943490713D46FF0040137
:100EB0000161022020772068806910F4407F20467D
:100EC00002D0FFF7CAFF04E000F0A6F8204600F0C9
:100ED0004BF9257720680169C943090716D4C16811
:100EE000C943090712D46FF008010161042020777B
:100EF0002068C0698007204602D0FFF7AEFF04E0FB
:100F000000F08AF8204600F02FF925772068016963
:100F1000C943C90617D4C168C943C90613D46FF0C1
:100F200010010161082020772068C06910F4407F1B
:100F3000204602D0FFF791FF04E000F06DF8204654
:100F400000F012F9257720680169C943C90708D163
:100F5000C168C943C90704D1891E0161204600F058
:100F600004F920680169C943090609D4C168C94365
:100F7000090605D46FF0800101612046FFF76CFE81
:100F800020680169C943490609D4C168C9434906B3
:100F900005D46FF040010161204600F0E7F82068B9
:100FA0000169C94389060BD4C168C943890607D4BE
:100FB0006FF0200101612046BDE87040FFF74DBE93
:100FC00070BD70B5044690F83C0001280DD0012595
:100FD00084F83C50022084F83D0042B1042A0AD033
:100FE000082A0CD00C2A11D10DE0022070BD206817
:100FF00000F0D6FA0AE0206800F002FB06E0206864
:1010000000F034FB02E0206800F064FB84F83D50FF
:10101000002084F83C0070BD007F0121044A0228B2
:1010200003D0012800D11160704751607047000063
:101030000000002010B5040003D094F83D0010B16A
:1010400007E0012010BD002084F83C00204600F09D
:101050000CF8022084F83D00211D206800F01CFAE5
:10106000012084F83D00002010BD704710B50268D3
:10107000044631B1042908D0082925D00C2908D10B
:1010800026E0D06840F0020002E0D06840F00400A2
:10109000D0600122206800F063FA0F49206888427E
:1010A00002D00E49884203D1416C41F400414164B1
:1010B0002068816801F00701062903D0016841F02A
:1010C00001010160002010BDD06840F00800DFE79A
:1010D000D06840F01000DBE7000001400004014050
:1010E00010B50268044631B1042908D008292FD070
:1010F0000C2908D130E0D06820F0020002E0D0686E
:1011000020F00400D0600022206800F029FA144882
:1011100041F2111321689A10814202D01148814294
:1011200009D1086A184206D1086A104203D1486CF6
:1011300020F4004048642068016A194206D1016A1F
:10114000114203D1016821F001010160002010BDAE
:10115000D06820F00800D5E7D06820F01000D1E773
:101160000000014000040140704770477047FEE7EF
:101170001CB500240C4900940A48019408600846F4
:10118000FFF7B6F808B1FFF791F80094002269461E
:1011900005480194FFF78BF8002801D0FFF786F887
:1011A0001CBD0000007400408C0000202DE9F04FB1
:1011B00087B014216846FFF73BF8384800240168DF
:1011C00041F080010160016801F080010591016832
:1011D00041F001010160016801F001010591016820
:1011E00041F010010160016801F0100105910168F2
:1011F00041F002010160016801F0020105910168FE
:1012000041F0040101600068DFF8948000F0040000
:101210004FF42A550590002229464046FFF7E8F989
:10122000DFF880904FF44066002231464846FFF7D1
:10123000DFF9DFF874A04FF4074700223946504623
:10124000FFF7D6F9DFF864B0002231465846FFF7C1
:10125000CFF900950125CDE9015469464046039434
:10126000FFF7EAF80096CDE9015469464846039431
:10127000FFF7E2F80097CDE9015469465046039420
:10128000FFF7DAF80096CDE9015469465846039411
:10129000FFF7D2F807B0BDE8F08F00003038024009
:1012A000001002400004024000000240000802401A
:1012B00010B58EB000240794089409940A940B94F6
:1012C0001C2168460C94FEF7B3FF1C484FF0804188
:1012D000C0E90014611EC0E9024104618461FFF7A6
:1012E00005FD08B1FEF7E2FF4FF48050079007A913
:1012F0001248FFF747FD08B1FEF7D8FF0F48FFF788
:1013000099FE08B1FEF7D2FF0B940BA90B480C9481
:10131000FFF7A4FC08B1FEF7C9FF40F24360CDE936
:10132000004002940422694604480494FFF749FEF1
:10133000002801D0FEF7BAFF0EB010BDA0000020BB
:1013400010B58EB000240794089409940A940B9465
:101350001C2168460C94FEF76BFF1C481A49C0E933
:101360000014611EC0E9024104618461FFF7BEFC04
:1013700008B1FEF79BFF4FF48050079007A9134870
:10138000FFF700FD08B1FEF791FF1048FFF752FE8E
:1013900008B1FEF78BFF0B940BA90C480C94FFF7D8
:1013A0005DFC08B1FEF782FF09480294CDE90040D8
:1013B0000022694605480494FFF703FE002801D087
:1013C000FEF774FF0EB010BD000C0040E0000020DE
:1013D00000BD0105FEE7704770477047FFF714B97D
:1013E00030B593B030216846FEF722FF14210CA8D7
:1013F000FEF71EFF19480025016841F08051016089
:10140000006800F0805011901548016841F4804157
:1014100001600068022400F48040119001200390D4
:1014200010200490009406940820CDE90750A820CD
:10143000CDE9090404200B906846FFF74BFA0CA98C
:101440000F2081E831004FF4A0500F90E00210907F
:1014500005210CA8FFF772F913B030BD40380240E7
:10146000007000400548016841F4700101600349C3
:101470004FF00060803908607047000088ED00E0A0
:101480000148FFF7EBBC0000A00000200148FFF777
:10149000E5BC0000E0000020F0B50268254C264DB8
:1014A000264E274F274B4FF0804CA04209D0604575
:1014B00007D0A84205D0B04203D0B84201D098422C
:1014C00004D122F0700E4A6842EA0E02A0421BD0FC
:1014D000604519D0A84217D0B04215D0B84213D0F9
:1014E000984211D0184DA8420ED0184DA8420BD0EA
:1014F000174DA84208D0174DA84205D0164DA84256
:1015000002D0164DA84203D122F44075CA682A437E
:101510004D6922F080022A4302608A68C2620A682A
:101520008262A04201D0984201D109690163012180
:101530004161F0BD0000014000040040000800408F
:10154000000C004000040140004001400044014004
:101550000048014000180040001C004000200040EE
:1015600010B501F01F030121046A99408C43046205
:10157000016A9A401143016210BD10B5846842EAC5
:10158000032224F47F440A432243826010BD826810
:1015900022F070020A4342F00701816070470000A8
:1015A000F0B5026A22F001020262036A42688469AD
:1015B000124E24F073050C682C4323F002058B684F
:1015C0002B430D4DA84201D0B04205D123F00807AE
:1015D000CB683B4323F00403A84201D0B04205D1BD
:1015E0004D6922F4407215438A692A43426084613E
:1015F000496841630362F0BD0000014000040140FE
:10160000F0B5026A22F010020262026A436884693D
:101610000D6824F4E64444EA05248D6822F0200293
:1016200042EA05120F4D104EA84201D0B04206D139
:10163000CF6822F0800242EA071222F04002A8425C
:1016400001D0B04207D14D6923F4406343EA8503DA
:101650008D6943EA8503436084614968816302625E
:10166000F0BD00000000014000040140F0B5026A36
:1016700022F480720262026A4368C46922F4007232
:1016800024F073050C68124E2C438D6842EA052243
:101690000E4DA84201D0B04206D1CF6822F40062BC
:1016A00042EA072222F48062A84201D0B04207D168
:1016B0004D6923F4405343EA05138D6943EA05134A
:1016C0004360C4614968C1630262F0BD000001402B
:1016D0000004014030B5026A22F480520262046ABA
:1016E0004268C3690D6823F4E64343EA05238D6825
:1016F00024F4005444EA0534084DA84202D0084DB1
:10170000A84204D14D6922F4804242EA8512426027
:10171000C36149680164046230BD000000000140FB
:101720000004014010B5036A046A24F00104046255
:10173000846924F0F00444EA021423F00A020A4304
:101740008461026210BD10B5036A23F010030362C6
:101750008369046A23F4704343EA023224F0A0034D
:1017600043EA01118261016210BDFEE70907090E1B
:10177000002804DB00F1E02080F80014704700F03E
:101780000F0000F1E02080F8141D704702E008C847
:10179000121F08C1002AFAD170477047002001E0EB
:1017A00001C1121F002AFBD17047000070B50E4D19
:1017B0000446C0F3C00280212846FEF719FFC4F397
:1017C000800269152846FEF713FFC4F34002E914AE
:1017D0002846FEF70DFF04F001022846BDE87040E0
:1017E0004FF40051FEF704BF0010024010B5012075
:1017F000FEF710FE054900200860012000F0A2F865
:10180000BDE81040022000F09DB8000078000020E4
:10181000094910B5002008600120FEF7FBFDFFF725
:10182000E5FF282000F08EF8062000F08BF8BDE8D8
:1018300010400C2000F086B87800002070B5144CE1
:10184000054601222068D102401C20601148FEF7A5
:10185000CFFE206810280CDB08D1284600F046F89F
:10186000BDE870400121022000F024B811380F2893
:1018700004D22846BDE8704000F038B8284600F091
:1018800035F80121084600F015F80020206070BDF1
:10189000780000200004024010B504460120FEF745
:1018A000B9FD02E0FFF7CAFF641C20780028F9D1D7
:1018B00010BD000070B506460C460120FEF7AAFDDB
:1018C000094D012E09D0022E06D104F1BF00C0B28D
:1018D00000F038F80F342C6070BD04F17F00C0B206
:1018E00000F030F8641EF6E7780000202DE9F041A2
:1018F00000F00F0405090120FEF78CFD0122104FB6
:10190000960231463846FEF773FE00F0ABFA2846E1
:10191000FFF74CFF002231463846FEF769FE0122F0
:1019200031463846FEF764FE00F09CFA2046FFF789
:101930003DFF31463846BDE8F0410022FEF758BE73
:101940000004024010B5044600224FF40061044830
:10195000FEF74EFE2046BDE81040FFF7C7BF00006F
:1019600000040240FEF758FEFFF73AFDFFF71EFCA9
:10197000FFF79EFCFFF7E4FCFFF7FAFB78204EF63A
:101980006021B1FBF0F1AC4CE160AC49B1FBF0F08F
:101990002061FFF73DFFFFF729FF4FF483754FF4F8
:1019A000C4764FF4DC7740F25D184FF4A57A4FF41B
:1019B0009379A3A0FFF770FF2846E16800F094F93F
:1019C000A1A0FFF769FF2846E16800F08DF9A0A00B
:1019D000FFF762FF3046E16800F086F99EA0FFF74E
:1019E0005BFF3046E16800F07FF99CA0FFF754FFF1
:1019F0003846E16800F078F999A0FFF74DFF3846C6
:101A0000E16800F071F997A0FFF746FF30462169C1
:101A100000F06AF9FFF7EAFE94A0FFF73DFF4046A9
:101A2000E16800F061F992A0FFF736FF4046E168F7
:101A300000F05AF98FA0FFF72FFF5046E16800F041
:101A400053F98EA0FFF728FF5046E16800F04CF9EB
:101A500001210220FFF72EFF89A0FFF71DFF484656
:101A6000E16800F041F988A0FFF716FF4846E168F9
:101A700000F03AF986A0FFF70FFF2846216900F031
:101A800033F9FFF7B3FE84A0FFF706FF3046E168A5
:101A900000F02AF981A0FFF7FFFE3046E16800F070
:101AA00023F97FA0FFF7F8FE4046E16800F01CF93B
:101AB0007DA0FFF7F1FE4046E16800F015F9012135
:101AC0000220FFF7F7FE7AA0FFF7E6FE5046E16836
:101AD00000F00AF978A0FFF7DFFE5046E16800F059
:101AE00003F976A0FFF7D8FE4846216900F0FCF81C
:101AF000FFF77CFE73A0FFF7CFFE3046E16800F0F1
:101B0000F3F866A0FFF7C8FE3046E16800F0ECF895
:101B10006EA0FFF7C1FE4046E16800F0E5F86DA059
:101B2000FFF7BAFE01210220FFF7C4FE4046E1683C
:101B300000F0DAF869A0FFF7AFFE5046E16800F068
:101B4000D3F859A0FFF7A8FE5046E16800F0CCF8A2
:101B500063A0FFF7A1FE4846216900F0C5F8FFF732
:101B600045FE37A0FFF798FE2846E16800F0BCF874
:101B700035A0FFF791FE2846E16800F0B5F834A0E3
:101B8000FFF78AFE3046E16800F0AEF832A0FFF7BA
:101B900083FE3046E16800F0A7F830A0FFF77CFE36
:101BA0003846E16800F0A0F82DA0FFF775FE384632
:101BB000E16800F099F82BA0FFF76EFE304621692E
:101BC00000F092F8FFF712FE28A0FFF765FE4046EE
:101BD000E16800F089F826A0FFF75EFE4046E16864
:101BE00000F082F823A0FFF757FE5046E16800F0AE
:101BF0007BF822A0FFF750FE5046E16800F074F831
:101C000001210220FFF756FE1DA0FFF745FE4846C2
:101C1000E16800F069F81CA0FFF73EFE4846E16865
:101C200000F062F81AA0FFF737FE2846216900F09D
:101C30005BF8FFF7DBFDBCE600000020C0D401002C
:101C40005477696E000000006B6C65200000000096
:101C5000205477696E0000006B6C65006C6974003D
:101C6000746C65002073746172000000486F770027
:101C70002049000020776F6E00000000646572004C
:101C8000576861740000000020796F750000000043
:101C90002061726521000000557000002061000085
:101CA000626F766500000000207468650000000027
:101CB000776F726C6400000020736F0020686967A2
:101CC000682C00006C696B6500000000206469618D
:101CD000000000006D6F6E6400000000696E00007F
:101CE00020736B79000000002DE9F05F4FF4837BD7
:101CF0000E46044640F25D1A584502D101225102B7
:101D00000FE0B4F5C47F0ED0B4F5937F0ED0B4F5D8
:101D1000DC7F0ED0B4F5A57F39D054450ED1012219
:101D2000D103484808E00122D10204E00122110257
:101D3000F7E7012291024448FEF75AFC3220444959
:101D40006043B1FBF0F7DFF8049142480025C9F881
:101D50000050464304214048C9F80850FFF786F96F
:101D600000213E48FFF782F9DFF8EC80D8F8000048
:101D700087633A4F38684663D8F800004562386890
:101D8000456200213648FEF704FB4E4619E0012269
:101D90009102C6E77068012813D12C48B16814304D
:101DA000002230F8113011462D48FEF7E5FAD8F838
:101DB00000004562B068401CB060322800D1B560B8
:101DC000756030680028E5D03868456204212248F3
:101DD000FFF786F900212148FFF782F9002120480A
:101DE000FEF70DFB5C4503D100224FF4007118E0B3
:101DF000B4F5C47F0ED0B4F5937F0FD0B4F5DC7F7B
:101E000011D0B4F5A57F16D0544518D100224FF457
:101E1000004106E000224FF4006107E000224FF489
:101E20008071084803E000224FF480610648BDE855
:101E3000F05FFEF7DDBB00224FF48061F1E7BDE803
:101E4000F09F000000000240000802400000002057
:101E500000BD010520480100A0000020E000002096
:101E60008C00002010B50C4C00224FF4005120468D
:101E7000FEF7BEFB0022E1142046FEF7B9FB00226C
:101E800061152046FEF7B4FB20460022BDE8104055
:101E90008021FEF7ADBB00000010024000000000F2
:101EA000000000000102030406070809CC1E000818
:101EB000000000208C0000008C170008581F00084C
:101EC0008C000020940400009C1700080000000013
:101ED0000000000000000000000000000000000002
:101EE00000080109FD09F20ADB0BB40C7A0D2A0E79
:101EF000C10E3D0F9C0FDC0FFC0FFC0FDC0F9C0F85
:101F00003D0FC10E2A0E7A0DB40CDB0BF20AFD094F
:101F100001090008FF0603060E0525044C0386028E
:101F2000D6013F01C3006400240004000400240023
:101F30006400C3003F01D60186024C0325040E0550
:101F40000306FF0600000000010000001000000072
:081F5000000000000024F40071
:040000050800018965
:00000001FF
